:100003004E6F77206C657427732068617665206175
:10001300206C6F6F6B21000002040607090B0D0FA4
:1000230011131516181A1C1E1F21232527282A2CE5
:100033002E2F3133343638393B3D3E40414345461C
:1000430048494B4C4D4F50525354565758595B5C8B
:100053005D5E5F606263646566676868696A6B6C4E
:100063006D6D6E6F6F707171727273737474757579
:100073007576767676777777777777000000000066
:1000830000000000000000000000000000183C3CDD
:100093003C18181800181800000000006666662453
:1000A30000000000000000000000000000006C6C75
:1000B300FE6C6C6CFE6C6C0000000018187CC6C2F1
:1000C300C07C0686C67C181800000000000000C231
:1000D300C60C183060C686000000000000386C6C47
:1000E3003876DCCCCCCC76000000000030303060B9
:1000F300000000000000000000000000000C1830A9
:100103003030303030180C00000000000030180C84
:100113000C0C0C0C0C183000000000000000000058
:10012300663CFF3C66000000000000000000000089
:1001330018187E18180000000000000000000000DE
:100143000000000018181830000000000000000034
:100153000000FE000000000000000000000000009E
:10016300000000000018180000000000000000025A
:10017300060C183060C0800000000000007CC6C67A
:10018300CED6D6E6C6C67C0000000000001838783C
:100193001818181818187E0000000000007CC60606
:1001A3000C183060C0C6FE0000000000007CC606CC
:1001B300063C060606C67C0000000000000C1C3C42
:1001C3006CCCFE0C0C0C1E000000000000FEC0C036
:1001D300C0FC0E0606C67C0000000000003860C0AC
:1001E300C0FCC6C6C6C67C000000000000FEC606F2
:1001F300060C18303030300000000000007CC6C60A
:10020300C67CC6C6C6C67C0000000000007CC6C60D
:10021300C67E0606060C78000000000000000018E9
:10022300180000001818000000000000000000186B
:100233001800000018183000000000000000060C31
:1002430018306030180C06000000000000000000A9
:1002530000FE0000FE00000000000000000060300F
:10026300180C060C1830600000000000007CC6C6A5
:100273000C181818001818000000000000007CC6B5
:10028300C6DEDEDEDCC07C00000000000010386C3F
:10029300C6C6FEC6C6C6C6000000000000FC6666F1
:1002A300667C66666666FC0000000000003C66C271
:1002B300C0C0C0C0C2663C000000000000F86C660D
:1002C30066666666666CF8000000000000FE666203
:1002D300687868606266FE000000000000FE6662E7
:1002E300687868606060F00000000000003C66C24F
:1002F300C0C0DEC6C6663A000000000000C6C6C61F
:10030300C6FEC6C6C6C6C60000000000003C1818DC
:100313001818181818183C0000000000001E0C0CD8
:100323000C0C0CCCCCCC78000000000000E6666C12
:100333006C78786C6666E6000000000000F0606090
:10034300606060606266FE000000000000C6EEFEB2
:10035300FED6C6C6C6C6C6000000000000C6E6F646
:10036300FEDECEC6C6C6C6000000000000386CC65E
:10037300C6C6C6C6C66C38000000000000FC666630
:10038300667C60606060F00000000000007CC6C610
:10039300C6C6C6C6D6DE7C0C0E00000000FC666630
:1003A300667C6C666666E60000000000007CC6C6DC
:1003B30060380C06C6C67C0000000000007E7E5A32
:1003C3001818181818183C000000000000C6C6C60C
:1003D300C6C6C6C6C6C67C000000000000C6C6C6A8
:1003E300C6C6C6C66C3810000000000000C6C6C6EC
:1003F300C6C6D6D6FE6C6C000000000000C6C66CF4
:100403006C38386C6CC6C600000000000066666677
:10041300663C181818183C000000000000FEC68651
:100423000C183060C2C6FE0000000000003C3030F3
:100433003030303030303C0000000000000080C01D
:10044300E070381C0E06020000000000003C0C0C9B
:100453000C0C0C0C0C0C3C0000000010386CC6009B
:100463000000000000000000000000000000000089
:100473000000000000000000FF0000303018000002
:100483000000000000000000000000000000000069
:10049300780C7CCCCCCC76000000000000E06060DF
:1004A300786C66666666DC000000000000000000F1
:1004B3007CC6C0C0C0C67C0000000000001C0C0C41
:1004C3003C6CCCCCCCCC76000000000000000000DB
:1004D3007CC6FEC0C0C67C000000000000386C640F
:1004E30060F060606060F000000000000000000049
:1004F30076CCCCCCCCCC7C0CCC78000000E060601B
:100503006C7666666666E600000000000018180058
:100513003818181818183C000000000000060600E0
:100523000E06060606060666663C000000E06060EE
:10053300666C78786C66E6000000000000381818D6
:100543001818181818183C000000000000000000DC
:10055300ECFED6D6D6D6D600000000000000000080
:10056300DC66666666666600000000000000000048
:100573007CC6C6C6C6C67C000000000000000000A2
:10058300DC66666666667C6060F000000000000062
:1005930076CCCCCCCCCC7C0C0C1E00000000000034
:1005A300DC7662606060F000000000000000000084
:1005B3007CC660380CC67C000000000000103030A0
:1005C300FC30303030361C0000000000000000001A
:1005D300CCCCCCCCCCCC76000000000000000000DA
:1005E30066666666663C18000000000000000000B6
:1005F300C6C6C6D6D6FE6C00000000000000000090
:10060300C66C3838386CC6000000000000000000DB
:10061300C6C6C6C6C6C67E060CF8000000000000AB
:10062300FECC183060C6FE0000000000000E181853
:100633001870181818180E00000000000018181879
:100643001800181818181800000000000070181877
:10065300180E181818187000000000000076DC004F
:100663000000000000000000000000000000001077
:0B067300386CC6C6C6FE000000000088
:100CC300E4F508F509E50990001A932477FDE43368
:100CD300120E297F007EF812126F0509E5097002D2
:100CE3000508C39464E508940040DA7508007509A3
:100CF30064C374C89509FFE49508FE74192FF5823F
:100D030074003EF583E4932477FDE433120E297FC8
:100D1300007EF812126F0509E50970020508C394F5
:100D2300C8E508940040CA7508007509C8745225BF
:100D330009F58274FF3508120E1C7F007EF812122B
:100D43006F0509E50970020508C3942CE5089401B1
:100D530040DB75080175092CC374909509FF740174
:100D63009508FE74192FF58274003E120E1C7F0045
:100D73007EF812126F0509E50970020508C3949005
:060D8300E508940140D2D6
:010D89002247
:10116D00E4F54FF55075160175178F854F1885509D
:10117D0019E4FBFAAD50AC4FAF50AE4F120F7D05D9
:10118D0050E5507002054FD394EFE54F940040D5D4
:01119D00222F
:1010CF00E4F551F55275160175178FE55275190034
:1010DF0033333354F8F518E4FBFAAD52AC51AF5239
:1010EF00AE51120F7D0552E55270020551D394EFA8
:0610FF00E551940040CF12
:0111050022C7
:10109300E4F553F55475160175178FE554AE53787F
:1010A30006C333CE33CED8F9F5198E18E4FBFAAD67
:1010B30054AC53AF54AE53120F7D0554E554700234
:0B10C3000553D394EFE553940040CA9E
:0110CE0022FF
:1011CE00E4F555F5568555168556178555188556E9
:1011DE0019AB56AA55120F760556E55670020555EF
:0911EE00D3948FE555940140DC17
:0111F70022D5
:10119E00E4F557F558855716855817E55875190013
:1011AE0033333354F8F518AB58AA57120F76055847
:0F11BE00E55870020557D3948FE557940140D63A
:0111CD0022FF
:10110600E4F559F55A855916855A17E55AAE5978B0
:1011160006C333CE33CED8F9F5198E18AB5AAA5971
:10112600120F76055AE55A70020559D3948FE55980
:04113600940140D10F
:01113A002292
:080B4D00AB0BAA0AAD0DAC0CC4
:0C0B55008E128F138C148D158A168B17CE
:100B6100C3E5159513F525E5149512F524C3E5198B
:100B71009517F527E5189516F526E5254524704FB7
:100B8100851723851622F521F520AE18AF19E4FC4F
:100B9100FDAB23AA22A921A820D3120B3C400302BA
:100BA1000CC28A2E8B2FAD13AC12AF13AE12120EE4
:100BB10037AF1BAE1A12126FE5232401F523E4357A
:100BC10022F522E43521F521E43520F52080BBE52D
:100BD100274526705585131F85121EF51DF51CAE80
:100BE10014AF15E4FCFDAB1FAA1EA91DA81CC3125E
:100BF1000B3C4003020CC2AC1EAD1FAF05AE048519
:100C0100162E85172FAB17AA16120E37AF1BAE1A69
:100C110012126FE51F2401F51FE4351EF51EE435A0
:100C21001DF51DE4351CF51C80B5E485131F8512E7
:100C31001EF51DF51CAE14AF15E4FCFDAB1FAA1E7D
:100C4100A91DA81CD3120B3C5077AE12AF13AB07F2
:100C5100AA06C3E51F9BFBE51E9AFAE51D9400F960
:100C6100E51C9400F8AE26AF27E4FCFD120A1FC074
:100C710006C007AE24AF25AB07AA06E4F9F8D007F2
:100C8100D006120AAA8F238E228D218C20AC1EAD94
:100C91001FAF05AE04AA22AB2385222E85232F1276
:100CA1000E37AF1BAE1A12126FE51F2401F51FE4B8
:100CB100351EF51EE4351DF51DE4351CF51C020C31
:010CC10036FC
:010CC200220F
:100FD8008E088F098C0A8D0B8A0C8B0D850E18854F
:100FE8000F1985101A85111BAB0FAA0E120B51850C
:100FF8000A18850B1985101A85111BAF09AE08123E
:101008000B4D850E18850F1985101A85111BAF0D0C
:10101800AE0C120B4D850E18850F1985101A851107
:101028001BAB0BAA0AAD09AC08AF09AE08020B55F9
:0A0D8A008B308A318932AF05AE04C8
:100D9400E5382FCDE5373ECD24FFCD34FFFCE536D5
:100DA400253ACBE5353539CB24FFF52FEB34FFF568
:100DB4002EAB36AA35120E37E4F53BF53CAC39AD13
:100DC4003AAE37AF38120A0DEF25E0FFEE33FEC31B
:100DD400E53C9FE53B9E503FAB30AA31A932853CB0
:100DE40082853B831209E0753E00F53DE53C240114
:100DF400FFE4353B8F82F5831209E0253EF53EE49E
:100E0400353DF53DAF3EFE12126F7402253CF53CB4
:070E1400E4353BF53B80A62D
:010E1B0022B4
:071220007F0112126F7F0530
:10122700D3EF9400EE94004010EF1F70011EE4FD11
:09123700EDC394FF50EA0D80F7AD
:01124000228B
:1011F8001212107FB07E1712126F7401FFFE1212C6
:08120800107F4712126F7F02F4
:10121000AD07AC06C2B28CA0EDF590C2B3D2B3223A
:0D1262001212277406FFFE121210E4FFFEA8
:10126F00AD07AC06D2B28CA0EDF590C2B3D2B322CB
:100E1C00F583E493FFC374779FFDE49400FCAF0566
:0B0E2C00FE85082E85092FAB09AA08DF
:100E37008E288F298D828C837F107E02121210AF2D
:100E470029AE2812126F7F117E02121210AF82AEE6
:100E57008312126F7F127E02121210AF03AE0212BC
:100E6700126F7F137E02121210AF2FAE2E12126F67
:100E77007F007E02121210E4FE12126F0F7E021222
:0F0E87001210E41FFE12126F7402FFFE0212100F
:1012B10075160175178FE4F518F519FBFA7DEFFC2A
:0512C100FFFE020F7D9D
:10129A0075160175178F74FFF518F519E4FBFA7DB9
:0712AA00EFFCFFFE020F7DC7
:0F12DB008545168546177518F8751900020F7DA1
:0F12EA00854D16854E177518077519E0020F7D93
:0F12F900850E16850F1775180075191F020F7DCA
:070F76007DEF7C00E4FFFEAB
:0C0F7D008E108F118C128D138A148B15AE
:100F890085162E85172F120E37C3E5139511F51BFC
:100F9900E5129510F51AC3E5179515F51DE5169592
:100FA90014F51CE4FBFAD3EB951DEA951C501F9030
:100FB9000000D3E582951BE583951A500AAF19AE57
:0E0FC9001812126FA380EB0BBB00010A80D838
:010FD70022F7
:10067E00D2B47580F0D2B57F0A7E00121227C2B5B1
:10068E007F327E00121227D2B57F0A7E00121262CE
:10069E007F641212627F051212277F077E001212EC
:1006AE00101212207F107E011212101E1212207FC5
:1006BE00007E011211F87F9D12126F7F031212102D
:1006CE007F007E2F12126F7F817E021212107E002B
:1006DE001212207F027E011212107FBD12126F7F46
:1006EE00051E121227E4FFFE12121012126F0F12C5
:1006FE0012101F0E12126F7F021E1212107F000EAA
:10070E0012126F7F031E1212107FB07E1012126F24
:10071E007F087E001212107408FE12126F0F7E00F8
:10072E001212107F0112126F7F0B1212107F101215
:10073E00126F7F0C121210E4FF12126F7F0F121243
:10074E0010E4FF12126F7F101212107F1412126F2C
:10075E007F111212107402FFFE12126F7F127E00B2
:10076E001212107F007E0312126F7F207E00121273
:10077E00107F1E7E0212126F7F217E0012121074E5
:10078E0002FFFE12126F7F227E001212107F000EE9
:10079E0012126F7F901E1212107F007E8012126F47
:1007AE007F927E00121210E4FF12126F0E1211F8D9
:1007BE007FB812126F7F031212107F007E2C12125E
:1007CE006F7F077E01121210E4FF1E12126F7F1050
:1007DE000E1212107F011E12126F7F107E02121265
:1007EE00697F117E021212107FEF7E0012126F7F50
:1007FE00127E021212697F137E021212107F8F1E5A
:10080E0012126F7F000E121210E4FE12126F0F7E84
:10081E0002121210E41FFE12126F7F807E0212125D
:10082E00697F817E021212697F827E021212697EB8
:10083E00031212100F7E0512126F7E031212107F1A
:10084E002F7E0C12126F7F027E031212107F337EE8
:10085E000D12126F7403FFFE1212107F0D7E3312F3
:10086E00126F7F047E031212107F0C7E2F12126FF6
:10087E007F057E031212107E0112126F0F7E03127D
:10088E0012107F0A12126F7F071212107F037E0A58
:10089E0012126F7F087E031212107F067E00121254
:1008AE006F7F097E031212107F047E0012126F7F7B
:1008BE000A7E031212107F057E0E12126F7F0B7EC0
:1008CE00031212107F017E0E12126F7F0C7E031226
:1008DE0012107F0E7E0112126F1F7E031212100F66
:1008EE007E0512126F7E031212107F000E12126F0F
:1008FE007F0F1E1212107F007E0612126F7E0412E0
:10090E0012107E3512126F0F7E041212107E00121C
:10091E00126F74041212677E05121210E4FE121288
:10092E006F0F7E05121210E41FFE12126F7F027EF1
:10093E00051212697F037E051212697F047E05126D
:10094E00126974051212677E06121210E4FE12125C
:10095E006F1212657FF07E061212697FF07E07120B
:10096E0012107F207E5412126F7FF27E0712121029
:10097E007FDF7E0012126F7FF37E071212107F90C0
:10098E007E2812126F7FF47E071212107F227E00D5
:10099E0012126F7FF57E071212107F117E00121257
:1009AE006F7FF07E071212697F071212107F730E8F
:0909BE0012126F7FC81E021227FD
:080F0C008B118D828C83AD076F
:100F1400E511D3945F505AEDFF7E002407FDEE33B4
:100F2400FCAB82AA83E582240FF52FE43583F52EEA
:100F3400120E37E4FB7980E4FA75F010E511A4246D
:100F44007EF582E5F03400F583E5822BF582E43505
:100F540083F583E493596006AE12AF138004AE1494
:100F6400AF1512126FE9C313F90ABA08CC0BBB1000
:010F7400C4B8
:010F75002259
:0C0E96008F088C098D0A8B0B8A0C890DCB
:100EA2001212C6EF75F008A42402FDE435F0FCAF7F
:100EB200087E00E50A2411F517E43509F516E4F574
:100EC20018F519AB0AAA09120F7D0508050AE50AE9
:100ED20070020509AB0BAA0CA90D1209C7602A24DE
:100EE200E0FB74FFF512F513E4F514F515AD0AAC49
:100EF20009AF08120F0C74082508F5087401250DB6
:090F0200F50DE4350CF50C80CB73
:010F0B0022C3
:10124100E4FFFEE4F55BF55CFDFC0DBD00010CED7A
:1012510064F04C70F50FBF00010EBE01E6BF90E3D4
:01126100226A
:10113B007F077E001212107F700E12126F7F321E0D
:10114B001212277F077E00121210E4FF12126F7F1C
:10115B00321212277F007E011212107FB27E16020E
:02116B00126F01
:10127F007F007E011212107FB07E1612126F7F0751
:0B128F007E001212107F730E02126F1F
:1010380012067E1212B11212B1750E00750F1475D8
:1010480010077511E07BEF7A00E4FDFCFFFE120F3C
:10105800D8750E00750F137B017A007DEE7C007F3A
:10106800017E001212F97BFF7A0079037D017C0072
:101078007F01120E967FE87E03121227120CC37F9F
:0B108800E87E031212271212B180F163
:03000000021308E0
:0C130800787FE4F6D8FD75815C02103897
:1009C700BB010689828A83E0225002E722BBFE022E
:0909D700E32289828A83E4932261
:1009E000BB010CE58229F582E5833AF583E02250CC
:1009F00006E92582F8E622BBFE06E92582F8E22216
:0D0A0000E58229F582E5833AF583E493222F
:100A0D00EF8DF0A4A8F0CF8CF0A428CE8DF0A42EFD
:020A1D00FE22B7
:100A1F00E88FF0A4CC8BF0A42CFCE98EF0A42CFC76
:100A2F008AF0EDA42CFCEA8EF0A4CDA8F08BF0A4F4
:100A3F002DCC3825F0FDE98FF0A42CCD35F0FCEB53
:100A4F008EF0A4FEA9F0EB8FF0A4CFC5F02ECD3918
:0F0A5F00FEE43CFCEAA42DCE35F0FDE43CFC2285
:100A6E0075F008758200EF2FFFEE33FECD33CDCC3F
:100A7E0033CCC58233C5829BED9AEC99E5829840C2
:100A8E000CF582EE9BFEED9AFDEC99FC0FD5F0D69F
:100A9E00E4CEFBE4CDFAE4CCF9A88222B800C1B9C9
:100AAE000059BA002DEC8BF084CFCECDFCE5F0CB07
:100ABE00F97818EF2FFFEE33FEED33FDEC33FCEB40
:100ACE0033FB10D703994004EB99FB0FD8E5E4F9FB
:100ADE00FA227818EF2FFFEE33FEED33FDEC33FCE8
:100AEE00C933C910D7059BE99A4007EC9BFCE99ADC
:100AFE00F90FD8E0E4C9FAE4CCFB2275F010EF2F21
:100B0E00FFEE33FEED33FDCC33CCC833C810D70720
:100B1E009BEC9AE899400AED9BFDEC9AFCE899F85B
:0E0B2E000FD5F0DAE4CDFBE4CCFAE4C8F922EE
:100B3C00EB9FF5F0EA9E42F0E99D42F0E89C45F00F
:010B4C002286
:1012C600E4FFFE1209C7600C0FEF70010E09E9700A
:0512D600F20A80EF2286
:00000001FF
