:0300000002001AE1
:03000300020016E2
:100013000200181F320F327F01D2AFD2AAD2A874C6
:10002300FFF590E59030E052319930E10931993094
:10003300E22D3199011A908000E4780079FEE8F00E
:10004300319908D9F979FEE8F0319918D9F979FE8F
:1000530074FFF590E59030E02130E203E401419034
:1000630080007400F0319974FFF0319974FFF590BA
:10007300E59030E00530E1BE01657900E990009933
:1000830093908000F031990974FFF590E59030E189
:10009300A530E2CB017F808386898D909396999CCE
:1000A3009FA2A5A8ABAEB1B4B7BABCBFC2C5C7CAFD
:1000B300CCCFD1D4D6D8DADDDFE1E3E5E7E9EAEC6A
:1000C300EEEFF1F2F4F5F6F7F8F9FAFBFCFDFDFEBD
:1000D300FFFFFFFFFFFFFFFFFFFFFFFFFEFDFDFC35
:1000E300FBFAF9F8F7F6F5F4F2F1EFEEECEAE9E7EB
:1000F300E5E3E1DEDDDAD8D6D4D1CFCCCAC7C5C2B9
:10010300BFBCBAB7B4B1AEABA8A5A29F9C99969356
:10011300908D89868380807C7978726F6C69666341
:10012300605D5A5755514E4C484543403D3A38352A
:1001330033302E2B29272522201E1C1A181615139F
:1001430011100E0D0B0A090807060504030202012C
:100153000000000000000000000000000102020394
:100163000405060708090A0B0D0E101113151618BE
:100173001A1C1E20222527292B2E303335383A3DD1
:10018300404345484C4E5155575A5D606366696C10
:0F0193006F7276797C80EF7E01DFFEFFDEFD224A
:00000001FF
