:0200000001A05D
:1000A0007581501200AB1200C880FB740B7A0312EA
:1000B00000D9740A7A051200D974097AFF1200D99E
:1000C000740C7A011200D922784079017B08E6FA93
:1000D000E91200D90809DBF6221200E7EA1200E76C
:1000E000C2940000D2A2227C08C2A13392A00000D8
:1000F00000D2A1DCF422C291C2927A08A29033D23B
:100100009200C292DAF6F5307A08A29033D29200C9
:10011000C292DAF6F531D29122E53133F531E5308C
:1001200033C4F5F0740FF532E5F054F0F5F0E53135
:0801300054F0C445F0F5332240
:00000001FF
