:1000030025730054686973206973206120746573D4
:10001300743A200000000000000000FFFFFFFFFF14
:10002300000000000000000000000000000C1E1E85
:100033001E0C0C000C0C0000006666662400000019
:10004300000000000036367F3636367F3636000035
:100053000C0C3E03031E30301F0C0C000000002369
:1000630033180C0633310000000E1B1B0E5F7B336D
:100073003B6E0000000C0C0C0600000000000000AA
:100083000030180C0606060C1830000000060C1889
:10009300303030180C060000000000663CFF3C6660
:1000A3000000000000000018187E1818000000006F
:1000B30000000000000000001C1C060000000000FF
:1000C300007F0000000000000000000000000000AE
:1000D3001C1C00000000406030180C0603010000E7
:1000E300003E63737B6B6F67633E000000080C0F79
:1000F3000C0C0C0C0C3F0000001E333330180C06A4
:10010300333F0000001E3330301C3030331E0000FC
:100113000030383C36337F3030780000003F030333
:10012300031F3030331E0000001C0603031F33334C
:10013300331E0000007F63636030180C0C0C00005A
:10014300001E3333371E3B33331E00000000000014
:10015300000000000000000000000000000000009C
:10016300000000000000000000000000000000008C
:10017300000000000000000000000000000000007C
:10018300000000000000000000000000000000006C
:040493000000000065
:100B6A00608800A80100010021083FFC2108210833
:100B7A002108210821083FF821080100010001008D
:100B8A0001000100020001000100FFFE0820082008
:100B9A000820044004400280010002800460181EFC
:100BAA00E0080000400227C22442845245525552AE
:100BBA001552255225522552C552410242824242BD
:100BCA00444A4804002040282024302427FE0020DC
:100BDA00E02027E0212021102110210A29CA360607
:0C0BEA00200200000000000000000000DD
:060E3A009000A7E0FF227A
:060E40009000A6E0FF2275
:070E3300909100E05FFF2237
:050D3800E4FBFD7F2437
:100D3D00AE077F03120E33BF03F8909000EDF07FE6
:100D4D0003120E33BF03F8909000EBF07F03120EE9
:0A0D5D0033BF03F8909100EEF0227E
:100DE000AE077F03120E33BF03F8909000EDF07F43
:0D0DF00003120E33BF03F8909100EEF022C5
:100DFD00AE077F03120E33BF03F8909100EEF02281
:100E0D00AE077F08120E33BF08F8909000EEF02267
:0E0E1D007F03120E33BF03F8909000E0FF2217
:080CCD00900074E0FFA3E0FDBC
:040CD500AC05A907BA
:100CD900E975F01EA4FFEC7A002FFFEA35F09000C9
:100CE90078F0A3EFF0FD900078E0FB7F24120D3D32
:0A0CF9009000A7E9F09000A6ECF0CF
:010D030022CD
:080E2B00EFC454F0FF020CD5E6
:100D0400120D387FB0120DFDE4FC7F08120E33BFC4
:100D140008F8E4FF120E0D0DBD00010CBC1CEBBD68
:100D240020E87FB2120DFD120D38E49000A7F09078
:030D340000A6F026
:010D37002299
:100D6700E4FBFD7F40120D3D7D1E7F41120D3DE4EA
:100D7700FD7F42120D3D7D1E7F43120D3D7FA11267
:0F0D87000DFD7F80120DFD7F98120DFD7F002264
:0B07FC00900000EBF0A3EAF0A3E9F08E
:10080700E4900071F07B0190002B04F0A37400F0DA
:10081700A37403F0900000E0F9A3E0FAA3E09000CE
:1008270078C9F0A3EAF0A3E9F090002BE0F9A3E080
:10083700FAA3E090007BC9F0A3EAF0A3E9F07A00FD
:100847007931120C83900073EFF0900073E0FF9002
:100857000071E0FEC39F4003020AB574312EF58292
:10086700E43400F583E090002EF074322EF582E434
:100877003400F583E090002FF0120E3A900074EFE9
:10088700F0120E40900075EFF090002EE0FFC36469
:100897008094805003020972EF648094A0504AEF5D
:1008A70024F8602924FB600424037037900071E06A
:1008B70004F0900074E0FFC394705008EF2410FF19
:1008C700E4FD8003E4FDFF120CD50208519000758A
:1008D700E0D394004003E014F0120CCDE490003014
:1008E700F0800690002E741FF0E4900072F07FB045
:1008F700120DFD90002EE0FDC36480949F4034905C
:100907000072E0FC94045003E4802CEDFF3395E083
:100917008F82F583740C120ABBE5822CF582E435CD
:1009270083F583E582249FF582E58334FEF583E42E
:10093700938004900030E0FF120E0D7FB2120DFD80
:10094700900072E0FF900074E02F04120CD1900029
:1009570072E004F0E0C39410409490002EE0640825
:100967007003020A85900075020A82E4900072F013
:10097700900072E0FFC394045039EF75F022A4246D
:10098700A8F582E43400F583E0FF90002EE0B50778
:100997001A900072E075F022A424A9F582E43400CD
:1009A700F583E0FF90002FE06F6008900072E0048D
:1009B700F080BDE4900076F0A3F0900076E0FEA30F
:1009C700E0FFC39410EE94004003020A789000748D
:1009D700E02F120CD17FB0120DFD900072E0FDC325
:1009E70094045055900077E025E0FF900076E033BF
:1009F700FEED75F022A424AAF582E43400F583E520
:100A0700822FF582E5833EF583E0FF120E0D9000FD
:100A170077E025E0FF900076E033FE900072E07506
:100A2700F022A424ABF582E43400F583E5822FF5A8
:100A370082E5833EF583E08015C3900077E0940854
:100A4700900076E094005009E4FF120E0DE4FF8059
:100A5700077FFF120E0D7FFF120E0D7FB2120DFDE5
:100A6700900077E004F07006900076E004F0020949
:100A7700C1900075E02402F0900071E004F090004E
:100A870075E0C3941E401B900074E02410F0E0C38F
:100A970094805007A3E024E2F08007E4900074F00C
:100AA700A3F0120CCD900071E004F0020851900001
:030AB70073E0FFEA
:010ABA002219
:100DBD00120D67120D04E4FDFF120E2B900003744B
:100DCD00FFF0A37400F0A37406F07BFF7A007903A3
:030DDD000207FC0E
:03000000020BF7F9
:0C0BF700787FE4F6D8FD758121020C3EE9
:100ABB00F5F0C582A4C582C5F0C583A42583F58353
:010ACB002208
:100C8300900078E0FFA3E0FEA3E0CF900081F0A303
:100C9300EEF0A3EFF090007BE0CBF0A3E0CAF0A36B
:100CA300E0C9F07F22900084AD82AC83120ACC8D20
:100CB300828C83F0A309E970010ADFEC90007BE0EA
:0A0CC300FBA3E0FAA3E0F90204FC31
:100C0300020DBDE493A3F8E493A34003F68001F23D
:100C130008DFF48029E493A3F85407240CC8C333F2
:100C2300C4540F4420C8834004F456800146F6DFC1
:100C3300E4800B0102040810204080900B6AE47EDC
:100C4300019360BCA3FF543F30E509541FFEE493B6
:100C5300A360010ECF54C025E060A840B8E493A37D
:100C6300FAE493A3F8E493A3C8C582C8CAC583CAA8
:100C7300F0A3C8C582C8CAC583CADFE9DEE780BE60
:010BF60000FE
:100ACC00BB010689828A83E0225002E722BBFE0228
:090ADC00E32289828A83E493225B
:10049700E5082481F582E43400F583E0050822901D
:1004A700007E300703900081E475F001120B2402EF
:1004B7000ACC2000E97F2ED2008018EF540F249039
:1004C700D43440D4FF30040BEF24BFB41A005003D8
:1004D7002461FFE50960021509050CE50C700205AA
:1004E7000B30070E90007EE475F001120B24EF022B
:1004F7000B12020D967403D2078003E4C207F508B6
:1005070090007E120B3BE4F509F50BF50CE509604D
:10051700077F201204DA80F5750AFFC201C200C204
:1005270002C203C205C206C2081204A6FF700D303C
:1005370007057F001204EBAF0CAE0B22B4255FC298
:10054700D5C2041204A6FF24D0B40A00501A75F0CD
:100557000A780930D50508B6FF0106C6A426F62095
:10056700D5047002D20380D924CFB41A00EF500407
:10057700C2E5D2040206ECD20180C6D20080C0D206
:100587000280BCD2D580BAD20580B47F201204DAAB
:100597002002077401B5090040F1120497FF120405
:1005A700DA020514D208D2068095120497FB1204CA
:1005B70097FA120497F94A4B700679BD7A077BFFC1
:1005C70020022EE509602A7E008E82758300120ABA
:1005D700E560060EEE650A70F0C2D5EBC0E0EAC032
:1005E700E0E9C0E0EE120733D0E0F9D0E0FAD0E05E
:1005F700FB120ACCFF60AAEBC0E0EAC0E0E9C0E06A
:100607001204DAD0E02401F9D0E03400FAD0E0FB9C
:10061700E50A0460DCD50AD980877BFF7A07792F42
:10062700D202809C791080027908C206C20880082D
:10063700D2D5790A8004790AC2D5E50A047002F591
:100647000AE4FAFDFEFF120497FC7B08200113124F
:100657000497FD7B1030000A120497FE120497FFDF
:100667007B20EC3382D592D55013C3E43000069F2C
:10067700FFE49EFEE42001039DFDE49CFCE4CBF82F
:10068700C201EC700CCFCECDCCE824F8F870F38023
:1006970017C3EF33FFEE33FEED33FDEC33FCEB33E3
:1006A700FB994002FB0FD8E9EB300105F8D0E0C415
:1006B70048B201C0E00AEC4D4E4F78207B0070C273
:1006C700EAB50A0040BCC0E0120735D0F0D0E02000
:1006D7000104C4C0E0C4B201C0F01204C3D0F0D515
:1006E700F0EB020514120B4405B153062B58058293
:1006F7004C057E42062F4F06374406374905974378
:08070700063D550621460621BE
:10070F004506214707DD5005862D058A2E05AD2BA1
:10071F00058E2305AB2007C62A054648000005A510
:10072F003F3F3F00790AA2D5200314300509B910C5
:10073F00020404B9080104A2D520060250010420C6
:10074F0002689202B509005034C0E07F20300319CF
:10075F007F30A20272067205500F12078CC202C2BE
:10076F0006C205C2087F30800F300503E9C0E012D2
:10077F0004DA300503D0E0F9D0E0B509CC30051725
:10078F007F30B9100C1204DA7F583004077F78805D
:10079F0003B908031204DA3002057F2D0204DA7F51
:1007AF00202008F87F2B2006F322920280CF286E9C
:1007BF00756C6C2900D2011204973001F8C20178D0
:1007CF000930D50108F60205462D50434958120449
:1007DF00972403B405004001E49007D8931204CB8B
:0D07EF00743A1204CBD20375090402062BE4
:100AE500BB010CE58229F582E5833AF583E02250C6
:100AF50006E92582F8E622BBFE06E92582F8E22210
:0D0B0500E58229F582E5833AF583E4932229
:100B1200BB010689828A83F0225002F722BBFE01C2
:020B2200F322BC
:100B2400F8E0FBA3A3E0F925F0F0E582158270025A
:070B34001583E0FA38F022FE
:090B3B00EBF0A3EAF0A3E9F022BB
:100B4400D083D082F8E4937012740193700DA3A340
:100B540093F8740193F5828883E473740293686054
:060B6400EFA3A3A380DF54
:100D9600EFB40A07740D120DA1740A309811A899C0
:100DA600B8130CC2983098FDA899C298B811F630BD
:070DB60099FDC299F5992295
:00000001FF
