:1000030025732C000A000102040810204080000020
:100013000000000000FFFFFFFFFF000000000000E2
:10002300000000000000000C1E1E1E0C0C000C0C37
:100033000000006666662400000000000000003631
:10004300367F3636367F363600000C0C3E03031EF1
:1000530030301F0C0C000000002333180C06333122
:100063000000000E1B1B0E5F7B333B6E0000000C79
:100073000C0C06000000000000000030180C0606FF
:10008300060C1830000000060C18303030180C062F
:100093000000000000663CFF3C660000000000001A
:1000A3000018187E1818000000000000000000006F
:1000B30000001C1C060000000000007F0000000080
:1000C300000000000000000000001C1C00000000F5
:1000D300406030180C06030100000018244242421D
:1000E30042424242241800107010101010101010D9
:1000F300107C003C4242420404081020427E003C33
:100103004242041804020242443800040C1424241A
:1001130044447E04041E007E404040586402024270
:100123004438001C24404058644242422418007E54
:1001330044440808101010101010003C424242249E
:1001430018244242423C001824424242261A020228
:1001530024380000001C1C00001C1C0000000000D0
:10016300001C1C00001C1C180C000030180C06039B
:10017300060C18300000000000007E007E00000026
:10018300000000060C18306030180C060000001E3A
:100193003330180C0C000C0C0000003E63637B7BB7
:1001A3007B03033E0000000C1E3333333F333333F2
:1001B3000000003F6666663E6666663F0000003CE0
:1001C300666303030363663C0000001F36666666CE
:1001D3006666361F0000007F4606263E2606467FDB
:1001E3000000007F6646263E2606060F0000003C00
:1001F300666303037363667C000000333333333F6A
:10020300333333330000001E0C0C0C0C0C0C0C1E8F
:1002130000000078303030303333331E0000006785
:100223006636361E363666670000000F060606067B
:100233004666667F00000063777F7F6B636363635B
:100243000000006363676F7F7B7363630000001CC0
:10025300366363636363361C0000003F6666663E75
:100263000606060F0000001C36636363737B3E3093
:100273007800003F6666663E366666670000001ECD
:100283003333030E1833331E0000003F2D0C0C0CC8
:100293000C0C0C1E00000033333333333333331E63
:1002A300000000333333333333331E0C0000006359
:1002B3006363636B6B3636360000003333331E0CD7
:1002C3001E333333000000333333331E0C0C0C1E48
:1002D3000000007F7319180C0646637F0000003C82
:1002E3000C0C0C0C0C0C0C3C000000000103060C65
:1002F300183060400000003C303030303030303C4B
:100303000000081C3663000000000000000000002D
:100313000000000000000000FF000C0C18000000AB
:10032300000000000000000000001E303E33336E6A
:100333000000000706063E666666663B0000000096
:1003430000001E330303331E0000003830303E33F9
:100353003333336E0000000000001E333F03331EAF
:100363000000001C3606061F0606060F00000000EC
:1003730000006E3333333E30331E00070606366EFD
:10038300666666670000001818001E181818187EA5
:100393000000003030003C3030303033331E000773
:1003A300060666361E3666670000001E1818181803
:1003B3001818187E0000000000003F6B6B6B6B6326
:1003C3000000000000001F3333333333000000000C
:1003D30000001E333333331E0000000000003B6671
:1003E3006666663E060F000000006E333333333E0D
:1003F30030780000000037766E06060F000000001C
:1004030000001E330618331E00000010107C10106D
:100413001010100C00000000000033333333336E30
:10042300000000000000333333331E0C00000000D3
:10043300000063636B6B3636000000000000633618
:100443001C1C3663000000000000666666663C30D4
:10045300180F000000003F311806233F000000384A
:100463000C0C0603060C0C380000001818181800B2
:1004730018181818000000070C0C1830180C0C077B
:10048300000000CE5B7300000000000000000000CD
:08049300000000000000000061
:100DCE00608800B30100010021083FFC21082108C2
:100DDE002108210821083FF8210801000100010027
:100DEE0001000100020001000100FFFE08200820A2
:100DFE000820044004400280010002800460181E96
:100E0E00E0080000400227C2244284524552555247
:100E1E001552255225522552C55241024282424256
:100E2E00444A4804002040282024302427FE002075
:100E3E00E02027E0212021102110210A29CA3606A0
:100E4E002002000000000000000000004A013B01EB
:090E5E00FF17FF17FF011404093E
:06129A009000B2E0FF220B
:0612A0009000B1E0FF2206
:04121900909000F0C1
:0E121D007F0A909100E0540364036002DFF446
:01122B0022A0
:0B126E007F0A909100E020E202DFF711
:011279002252
:0B127A007F0A909100E020E302DFF704
:011285002246
:0B1286007F0A909100E020E602DFF7F5
:01129100223A
:05116400E4FBFD7F2407
:10116900AE0712121DEF70037F0122ED121219EF63
:1011790070037F0222EB121219EF70037F03229092
:071189009100EEF07F00224F
:1011DE00AE0712121DEF70037F0122909000EEF009
:1011EE0012121DEF70037F0222909100EDF07F002E
:0111FE0022CE
:10122C00AE0712121DEF70037F0122909100EEF0B9
:03123C007F00220E
:10123F00AE0712127AEF70037F0122909000EEF04A
:03124F007F0022FB
:0F12520012121DEF70037F0122909000E0FF2227
:0810900090007FE0FFA3E0FDEA
:04109800AC05A907F3
:10109C00E975F01EA4FFEC7A002FFFEA35F0900002
:1010AC0083F0A3EFF0FD900083E0FB7F2412116925
:0A10BC009000B2E9F09000B1ECF0F2
:0110C6002207
:08129200EFC454F0FF021098B4
:101135001211647FB012122CE4FC12127AE4FF1231
:10114500123F0DBD00010CBC1CF0BD20ED7FB2129D
:0E115500122C121164E49000B2F09000B1F080
:011163002269
:1010C700E4FBFD7F40121169EF60037FFF22E4FB21
:1010D7007D1E7F41121169E4FD7F421211697D1E59
:1010E7007F431211697FA112122C7F8012122C7F6D
:0710F7009812122C7F002269
:0B08000090000BEBF0A3EAF0A3E9F07E
:10080B00E490007CF07B0190003604F0A37400F0C0
:10081B00A3740EF090000BE0F9A3E0FAA3E09000B4
:10082B0083C9F0A3EAF0A3E9F0900036E0F9A3E066
:10083B00FAA3E0900086C9F0A3EAF0A3E9F07A00EE
:10084B00793C12104690007EEFF090007EE0FF9016
:10085B00007CE0FEC39F4003020AB9743C2EF58274
:10086B00E43400F583E0900039F0743D2EF582E41A
:10087B003400F583E090003AF012129A90007FEF6B
:10088B00F01212A0900080EFF0900039E0FFC364EB
:10089B008094805003020976EF648094A0504AEF55
:1008AB0024F8602924FB60042403703790007CE05B
:1008BB0004F090007FE0FFC394705008EF2410FF0A
:1008CB00E4FD8003E4FDFF121098020855900080B0
:1008DB00E0D394004003E014F0121090E490003B3E
:1008EB00F08006900039741FF0E490007DF07FB02B
:1008FB0012122C900039E0FDC36480949F40349019
:10090B00007DE0FC94045003E4802CEDFF3395E074
:10091B008F82F583740C120C62E5822CF582E43520
:10092B0083F583E5822499F582E58334FEF583E430
:10093B0093800490003BE0FF12123F7FB212122C07
:10094B0090007DE0FF90007FE02F04121094900048
:10095B007DE004F0E0C394104094900039E064080B
:10096B007003020A89900080020A86E490007DF0F1
:10097B0090007DE0FFC394045039EF75F022A4245E
:10098B00B3F582E43400F583E0FF900039E0B5075E
:10099B001A90007DE075F022A424B4F582E43400B3
:1009AB00F583E0FF90003AE06F600890007DE00473
:1009BB00F080BDE4900081F0A3F0900081E0FEA3F5
:1009CB00E0FFC39410EE94004003020A7C90007F7A
:1009DB00E02F1210947FB012122C90007DE0FDC31B
:1009EB0094045055900082E025E0FF900081E033A5
:1009FB00FEED75F022A424B5F582E43400F583E511
:100A0B00822FF582E5833EF583E0FF12123F9000C3
:100A1B0082E025E0FF900081E033FE90007DE075E1
:100A2B00F022A424B6F582E43400F583E5822FF599
:100A3B0082E5833EF583E08015C3900082E0940845
:100A4B00900081E094005009E4FF12123FE4FF8014
:100A5B00077FFF12123F7FFF12123F7FB212122C41
:100A6B00900082E004F07006900081E004F002092F
:100A7B00C5900080E02402F090007CE004F0900030
:100A8B0080E0C3941E401B90007FE02410F0E0C375
:100A9B0094805007A3E024E2F08007E490007FF0FD
:100AAB00A3F012109090007CE004F0020855900027
:030ABB007EE0FFDB
:010ABE002215
:0B11900090001AEBF0A3EAF0A3E9F0D6
:10119B00E4FF90001AE0FBA3E0FAA3E0F9AE070F1F
:0B11AB008E82758300120BB570E81FE8
:0111B6002216
:0B0F7800900014EBF0A3EAF0A3E9F0F6
:100F8300121190900017EFF0E4A3F0900017E0C364
:100F930013FFA3E0FEC39F505A900014E0FBA3E0AD
:100FA300FAA3E0F98E82758300120BB5900019F055
:100FB300EEFF900017E0C39FFFE49400FE74FF2F41
:100FC300F58274FF3EF583120BB5FD900018E0F532
:100FD30082758300ED120BF4900019E0FD74FF2F6E
:100FE300F58274FF3EF583ED120BF4900018E004D4
:030FF300F08098F3
:010FF60022D8
:1011FF00EFC39430400FEFD394395009EF24D0FF51
:0A120F00E434FFFE227EFF7FFF2281
:100EF40090000EECF0A3EDF090000BEBF0A3EAF001
:030F0400A3E9F06E
:100F0700900010EBF0A3EAF0A3E9F090000EE0FEEA
:100F1700A3E0FF4E603E7C007D0A120C16AF0590E1
:100F27000013EFF02430FF90000BE0FBA3E475F013
:100F370001120C4CA9F0FAEF120BE290000EE0FE42
:100F4700A3E0FF7C007D0A120C1690000EEEF0A3C2
:100F5700EFF080B790000BE0FBA3E0FAA3E0F9E421
:100F6700120BE2900010E0FBA3E0FAA3E0F9020FF6
:010F77007801
:100FF700900145EBF0A3EAF0A3E9F0EDC4540F2408
:1010070030FF900145E0FBA3E475F001120C4CA9F9
:10101700F0FAEF120BE2ED2430540FFF900145E098
:10102700FBA3E475F001120C4CA9F0FAEF120BE2E6
:0F103700900145E0FBA3E0FAA3E0F9E4020BE22D
:0C1261007F187EC87D1EDDFEDEFADFF681
:01126D00225E
:1010FE0090B00B74A6F0E4FF743B2FF582E434013C
:10110E00F583E0FEE42FF582E434B0F583EEF00FC4
:10111E00EFB40AE490B00A7420F090B00CE0A3E0B3
:06112E0090B00B7426F0E6
:011134002298
:100D270078007C007D017BFF7A0479917E007F0A41
:100D3700120B8F1210C7121135E4FDFF1212921217
:100D470010FEE490000AF090000AE0FFC3940A50F6
:100D570064EFB403047F0180027F0090000AE0FE85
:100D6700B401047D0180027D00ED4FFFEEB4050460
:100D77007E0180027E00EE4F703390000AE0FFE4B0
:100D87002FF582E434B0F583E0FF7B017A00790028
:100D9700FD7C00120EF490000E7401F0A37400F0B5
:100DA700A37400F07BFF7A00790312080090000A11
:100DB700E004F080921212617BFF7A007907120833
:070DC70000121135020D4975
:03000000020E6885
:0C0E6800787FE4F6D8FD758121020EAF02
:100ABF00E709F608DFFA8046E709F208DFFA803E19
:100ACF0088828C83E709F0A3DFFA8032E309F60806
:100ADF00DFFA8078E309F208DFFA807088828C836E
:100AEF00E309F0A3DFFA806489828A83E0A3F60822
:100AFF00DFFA805889828A83E0A3F208DFFA804CFC
:100B0F0080D280FA80C680D4806980F280338010D2
:100B1F0080A680EA809A80A880DA80E280CA80333B
:100B2F0089828A83ECFAE493A3C8C582C8CCC583B3
:100B3F00CCF0A3C8C582C8CCC583CCDFE9DEE78083
:100B4F000D89828A83E493A3F608DFF9ECFAA9F002
:100B5F00EDFB2289828A83ECFAE0A3C8C582C8CC58
:100B6F00C583CCF0A3C8C582C8CCC583CCDFEADE71
:100B7F00E880DB89828A83E493A3F208DFF980CCD3
:100B8F0088F0EF60010E4E60C388F0ED2402B404CC
:100B9F000050B9F582EB2402B4040050AF23234573
:060BAF008223900B0F737E
:100BB500BB010CE58229F582E5833AF583E02250F5
:100BC50006E92582F8E622BBFE06E92582F8E2223F
:0D0BD500E58229F582E5833AF583E4932259
:100BE200BB010689828A83F0225002F722BBFE01F2
:020BF200F322EC
:100BF400F8BB010DE58229F582E5833AF583E8F037
:100C0400225006E92582C8F622BBFE05E92582C8E2
:020C1400F222CA
:100C1600C2D5EC30E709B2D5E4C39DFDE49CFCEEF9
:100C260030E715B2D5E4C39FFFE49EFE120C8CC3D9
:100C3600E49DFDE49CFC8003120C8C30D507C3E4D4
:060C46009FFFE49EFE2268
:100C4C00A3F8E0C5F025F0F0E5821582700215835B
:060C5C00E0C838F0E822B8
:100C6200F5F0C582A4C582C5F0C583A42583F583AA
:010C7200225F
:10104600900083E0FFA3E0FEA3E0CF90008CF0A326
:10105600EEF0A3EFF0900086E0CBF0A3E0CAF0A399
:10106600E0C9F07F2290008FAD82AC83120C738DA5
:10107600828C83F0A309E970010ADFEC900086E018
:0A108600FBA3E0FAA3E0F902050065
:100E7400020D27E493A3F8E493A34003F68001F260
:100E840008DFF48029E493A3F85407240CC8C3337F
:100E9400C4540F4420C8834004F456800146F6DF4E
:100EA400E4800B0102040810204080900DCEE47E03
:100EB400019360BCA3FF543F30E509541FFEE49343
:100EC400A360010ECF54C025E060A840B8E493A30A
:100ED400FAE493A3F8E493A3C8C582C8CAC583CA35
:100EE400F0A3C8C582C8CAC583CADFE9DEE780BEED
:010E6700008A
:100C7300BB010689828A83E0225002E722BBFE027F
:090C8300E32289828A83E49322B2
:100C8C00BC000BBE0029EF8DF084FFADF022E4CC4C
:100C9C00F875F008EF2FFFEE33FEEC33FCEE9DEC15
:100CAC00984005FCEE9DFE0FD5F0E9E4CEFD22ED5B
:100CBC00F8F5F0EE8420D21CFEADF075F008EF2FA5
:100CCC00FFED33FD4007985006D5F0F222C398FD96
:050CDC000FD5F0EA2233
:10049B00E508248CF582E43400F583E0050822900E
:1004AB00008930070390008CE475F001120CE10217
:1004BB000C732000E97F2ED2008018EF540F24908C
:1004CB00D43440D4FF30040BEF24BFB41A005003D4
:1004DB002461FFE50960021509050CE50C700205A6
:1004EB000B30070E900089E475F001120CE1EF025E
:1004FB000BE20211B77403D2078003E4C207F508BD
:10050B00900089120CF8E4F509F50BF50CE5096080
:10051B00077F201204DE80F5750AFFC201C200C2FC
:10052B0002C203C205C206C2081204AAFF700D3034
:10053B0007057F001204EFAF0CAE0B22B4255FC290
:10054B00D5C2041204AAFF24D0B40A00501A75F0C5
:10055B000A780930D50508B6FF0106C6A426F62091
:10056B00D5047002D20380D924CFB41A00EF500403
:10057B00C2E5D2040206F0D20180C6D20080C0D2FE
:10058B000280BCD2D580BAD20580B47F201204DEA3
:10059B002002077401B5090040F112049BFF1204FD
:1005AB00DE020518D208D206809512049BFB1204BA
:1005BB009BFA12049BF94A4B700679C17A077BFFB1
:1005CB0020022EE509602A7E008E82758300120BB5
:1005DB00B560060EEE650A70F0C2D5EBC0E0EAC05E
:1005EB00E0E9C0E0EE120737D0E0F9D0E0FAD0E056
:1005FB00FB120C73FF60AAEBC0E0EAC0E0E9C0E0BD
:10060B001204DED0E02401F9D0E03400FAD0E0FB94
:10061B00E50A0460DCD50AD980877BFF7A0779333A
:10062B00D202809C791080027908C206C208800829
:10063B00D2D5790A8004790AC2D5E50A047002F58D
:10064B000AE4FAFDFEFF12049BFC7B082001131247
:10065B00049BFD7B1030000A12049BFE12049BFFCF
:10066B007B20EC3382D592D55013C3E43000069F28
:10067B00FFE49EFEE42001039DFDE49CFCE4CBF82B
:10068B00C201EC700CCFCECDCCE824F8F870F3801F
:10069B0017C3EF33FFEE33FEED33FDEC33FCEB33DF
:1006AB00FB994002FB0FD8E9EB300105F8D0E0C411
:1006BB0048B201C0E00AEC4D4E4F78207B0070C26F
:1006CB00EAB50A0040BCC0E0120739D0F0D0E020F8
:1006DB000104C4C0E0C4B201C0F01204C7D0F0D50D
:1006EB00F0EB020518120D0105B553062F580586C0
:1006FB004C05824206334F063B44063B49059B4360
:08070B000641550625460625AE
:100713004506254707E150058A2D058E2E05B12B89
:1007230005922305AF2007CA2A054A48000005A9F8
:100733003F3F3F00790AA2D5200314300509B910C1
:10074300020404B9080104A2D520060250010420C2
:1007530002689202B509005034C0E07F20300319CB
:100763007F30A20272067205500F120790C202C2B6
:1007730006C205C2087F30800F300503E9C0E012CE
:1007830004DE300503D0E0F9D0E0B509CC3005171D
:100793007F30B9100C1204DE7F583004077F788055
:1007A30003B908031204DE3002057F2D0204DE7F45
:1007B300202008F87F2B2006F322920280CF286E98
:1007C300756C6C2900D20112049B3001F8C20178C8
:1007D3000930D50108F602054A2D50434958120441
:1007E3009B2403B405004001E49007DC931204CF7B
:0D07F300743A1204CFD20375090402062FD8
:100CE100F8E0FBA3A3E0F925F0F0E582158270029C
:070CF1001583E0FA38F02240
:090CF800EBF0A3EAF0A3E9F022FD
:100D0100D083D082F8E4937012740193700DA3A381
:100D110093F8740193F5828883E473740293686095
:060D2100EFA3A3A380DF95
:1011B700EFB40A07740D1211C2740A309811A89976
:1011C700B8130CC2983098FDA899C298B811F63098
:0711D70099FDC299F5992270
:00000001FF
