:100052007777772E686966696361742E636F6D00C6
:10000300758920758DFD758BFD7598505387EFD2DB
:100013008EE4F5A812002C3098FDC29885990A85C4
:090023000A80AF0A12008680EE8B
:0F006200E4F508A2B2334208E508650924FF223D
:09007D00E50920E00312002C2229
:080086008F993099FDC2992207
:10002C00E4FFEF90005293600AF5993099FDC29964
:03003C000F80EF43
:01003F00229E
:10004000AD071FED600BE4FEEEC3947850F20E8016
:01005000F7B8
:01005100228C
:030000000200718A
:0C007100787FE4F6D8FD75810A020003D8
:00000001FF
