:1000030000000000000000000000000000000000ED
:100013000000183C3C3C1818180018180000000099
:100023000066666624000000000000000000000077
:100033000000006C6CFE6C6C6CFE6C6C00000000CD
:1000430018187CC6C2C07C0686C67C18180000003F
:1000530000000000C2C60C183060C6860000000015
:100063000000386C6C3876DCCCCCCC760000000019
:10007300003030306000000000000000000000008D
:1000830000000C18303030303030180C0000000005
:10009300000030180C0C0C0C0C0C18300000000085
:1000A3000000000000663CFF3C660000000000000A
:1000B300000000000018187E18180000000000005F
:1000C30000000000000000000018181830000000B5
:1000D30000000000000000FE00000000000000001F
:1000E30000000000000000000000181800000000DD
:1000F3000000000002060C183060C0800000000001
:1001030000007CC6C6CED6D6E6C6C67C000000007C
:1001130000001838781818181818187E0000000006
:1001230000007CC6060C183060C0C6FE000000004C
:1001330000007CC606063C060606C67C00000000DE
:1001430000000C1C3C6CCCFE0C0C0C1E00000000D0
:100153000000FEC0C0C0FC0E0606C67C0000000006
:1001630000003860C0C0FCC6C6C6C67C00000000E4
:100173000000FEC606060C183030303000000000C8
:1001830000007CC6C6C67CC6C6C6C67C000000008E
:1001930000007CC6C6C67E0606060C78000000007A
:1001A30000000000181800000018180000000000EC
:1001B30000000000181800000018183000000000AC
:1001C300000000060C18306030180C060000000018
:1001D300000000000000FE0000FE00000000000020
:1001E3000000006030180C060C183060000000009E
:1001F30000007CC6C60C1818180018180000000070
:100203000000007CC6C6DEDEDEDCC07C0000000031
:10021300000010386CC6C6FEC6C6C6C60000000085
:100223000000FC6666667C66666666FC000000008D
:1002330000003C66C2C0C0C0C0C2663C00000000F3
:100243000000F86C6666666666666CF8000000007F
:100253000000FE6662687868606266FE0000000067
:100263000000FE6662687868606060F0000000006D
:1002730000003C66C2C0C0DEC6C6663A000000008D
:100283000000C6C6C6C6FEC6C6C6C6C60000000077
:1002930000003C18181818181818183C0000000023
:1002A30000001E0C0C0C0C0CCCCCCC780000000015
:1002B3000000E6666C6C78786C6666E60000000009
:1002C3000000F06060606060606266FE0000000035
:1002D3000000C6EEFEFED6C6C6C6C6C600000000B7
:1002E3000000C6E6F6FEDECEC6C6C6C600000000A7
:1002F3000000386CC6C6C6C6C6C66C38000000000F
:100303000000FC6666667C60606060F000000000D0
:1003130000007CC6C6C6C6C6C6D6DE7C0C0E000070
:100323000000FC6666667C6C666666E6000000009C
:1003330000007CC6C660380C06C6C67C0000000000
:1003430000007E7E5A1818181818183C0000000088
:100353000000C6C6C6C6C6C6C6C6C67C0000000028
:100363000000C6C6C6C6C6C6C66C3810000000006C
:100373000000C6C6C6C6C6D6D6FE6C6C000000001A
:100383000000C6C66C6C38386C6CC6C60000000032
:100393000000666666663C181818183C00000000EA
:1003A3000000FEC6860C183060C2C6FE00000000C6
:1003B30000003C30303030303030303C0000000042
:1003C30000000080C0E070381C0E06020000000030
:1003D30000003C0C0C0C0C0C0C0C0C3C0000000042
:1003E30010386CC600000000000000000000000090
:1003F30000000000000000000000000000FF0000FB
:100403003030180000000000000000000000000071
:100413000000000000780C7CCCCCCC7600000000FF
:100423000000E06060786C66666666DC00000000D1
:1004330000000000007CC6C0C0C0C67C00000000F5
:1004430000001C0C0C3C6CCCCCCCCC760000000027
:1004530000000000007CC6FEC0C0C67C0000000097
:100463000000386C6460F060606060F000000000C1
:10047300000000000076CCCCCCCCCC7C0CCC78003B
:100483000000E060606C7666666666E60000000069
:1004930000001818003818181818183C000000003D
:1004A30000000606000E06060606060666663C0003
:1004B3000000E06060666C78786C66E6000000001F
:1004C30000003818181818181818183C00000000F5
:1004D3000000000000ECFED6D6D6D6D60000000001
:1004E3000000000000DC66666666666600000000C9
:1004F30000000000007CC6C6C6C6C67C0000000023
:100503000000000000DC66666666667C6060F000E2
:10051300000000000076CCCCCCCCCC7C0C0C1E00B4
:100523000000000000DC7662606060F00000000004
:1005330000000000007CC660380CC67C0000000090
:100543000000103030FC30303030361C000000002A
:100553000000000000CCCCCCCCCCCC76000000005A
:10056300000000000066666666663C180000000036
:100573000000000000C6C6C6D6D6FE6C0000000010
:100583000000000000C66C3838386CC6000000005C
:100593000000000000C6C6C6C6C6C67E060CF8002C
:1005A3000000000000FECC183060C6FE0000000012
:1005B30000000E18181870181818180E0000000004
:1005C3000000181818180018181818180000000050
:1005D3000000701818180E18181818700000000082
:1005E300000076DC000000000000000000000000B6
:1005F3000000000010386CC6C6C6FE0000000000F4
:10060300C003E007700E381C1C380E7007E003C0EF
:1006130003C007E00E701C38381C700EE007C003DF
:1006230000000000000C001C1038307030E031C0B6
:10063300338037003E003C003FF03FE00000000005
:1006430000000000000C001C1038307030E031C096
:10065300338037003E003C003FF03FE000000000E5
:100663007FFE818183D186718C319819B00DF00F93
:1006730093C992499249924992499FF980017FFE19
:100683007FFE80019E799189BDBDA3C5A185A1850A
:10069300A185A185A185A185BFFD818180017FFE03
:1006A3007FFE80018001BFFDB00DB81DAC35A6658E
:1006B300A3C5A5A5A815B00DBFFD800180017FFED0
:1006C3007FFE80019A01BFFDA005A195A245A42547
:1006D300A425A245A185A005BFFD800180017FFE61
:1006E3007FFE80018001BFFDA005A005A005A00538
:1006F300A005BFFD84218421BFFD800180017FFE11
:100AB600D2B27F0A7E00120C1CC2B27F327E0012B6
:100AC6000C1CD2B27F0A7E00120C1C120703120CF9
:100AD60051750E00750F6A7510F8751100E4FBFA72
:100AE6007DEFFCFFFE120A5B750E00750FD47510C4
:100AF600077511E07B6B120A52750E01750F3F7573
:0F0B0600100075111F7BD5120A52120CAD80BF63
:070C15000E120C3D7F0A1EC8
:100C1C00D3EF9400EE94004010EF1F70011EE4FD22
:090C2C00EDC394FF50EA0D80F7BE
:010C3500229C
:0E0BF3000E120C3D7F501E120C1C7F077E0060
:100C0100AD07AC06C2B18C90C2B0D2B0EDF590C2C6
:040C1100B0D2B0228B
:070C36007E00120C01E4FF37
:100C3D00AD07AC06D2B18C90C2B0D2B0EDF590C27A
:040C4D00B0D2B0224F
:100B1500FCAB82AA83E582240FF51DE43583F51C21
:100B25008E168F178D828C837F507E00120C01AF3D
:100B350017AE16120C3D7F517E00120C01AF82AE2E
:100B450083120C3D7F527E00120C01AF03AE0212E0
:100B55000C3D7F537E00120C01AF1DAE1C120C3DE7
:0F0B65007F20120C367F21120C387F22020C01E8
:100CAD00750E01750F3FE4F510F511FBFA7DEFFCA4
:050CBD00FFFE020A5BCE
:100C5100750E01750F3F74FFF510F511E4FBFA7D78
:070C6100EFFCFFFE020A5B3D
:100C6800750E01750F3F7510F8751100E4FBFA7DDC
:070C7800EFFCFFFE020A5B26
:100C7F00750E01750F3F7510077511E0E4FBFA7DD6
:070C8F00EFFCFFFE020A5B0F
:100C9600750E01750F3F75100075111FE4FBFA7D87
:070CA600EFFCFFFE020A5BF8
:090A52007A007DEF7C00E4FFFE58
:0C0A5B008E088F098C0A8D0B8A0C8B0D05
:100A6700850E1C850F1D120B25C3E50B9509F51384
:100A7700E50A9508F512C3E50F950DF515E50E95F1
:100A87000CF514E4FBFAD3EB9515EA9514501F9077
:100A97000000D3E5829513E5839512500AAF11AE96
:0E0AA70010120C3DA380EB0BBB00010A80D89F
:010AB500221E
:10070300E4FFFE120C01120C3D0F120C011F0E121E
:100713000C3D7F021E120C017F007E07120C3D7FF1
:10072300037E00120C017FB07E10120C3D7F041279
:100733000C367F08120C011F7E02120C3D7F09123A
:100743000C367F0A120C387F0C120C387F0D120CFA
:10075300387F0F120C387F07120C017401FF120C43
:10076300157F107E00120C017FB07E12120C3D7FAC
:10077300117E00120C017F07120C3D7F17120C0132
:100783007F01120C3D7F12120C017FBB0E120C3D38
:100793007F131E120C017F007E1F120C3D7F297EEA
:1007A30000120C017F12120C3D7F0A120C1C7F30C9
:1007B3007E00120C017F020E120C3D7F311E120CC3
:1007C300017F157E0C120C3D7F327E00120C017FDF
:1007D300187E0B120C3D7F337E00120C017F0F7EBF
:1007E3001C120C3D7F347E00120C017F0B7E121213
:1007F3000C3D7F357E00120C017F047E0A120C3DF6
:100803007F367E00120C017F007E1F120C3D7F3766
:100813007E00120C017F1F7E05120C3D7F387E0087
:10082300120C017F057E03120C3D7F397E00120CF2
:10083300017F057E0A120C3D7F3A7E00120C017F78
:10084300047E0F120C3D7F3B7E00120C017F007E65
:100853000F120C3D7F3C7E00120C017F0F120C3DEA
:100863007F3D120C017F0F7E05120C3D7F3E7E0003
:10087300120C017F047E02120C3D7F3F7E00120C9E
:10088300017404FFFE120C3D7F50120C367F51128F
:100893000C017FEF120C3D7F52120C387F53120C68
:1008A300017F3F120C157F607E00120C017F007EDA
:1008B30027120C3D7F617E00120C017F01120C3D5B
:1008C3007F6A120C387F0A120C1C7F80120C367F51
:1008D30081120C387F82120C387F83120C387F848C
:1008E300120C387F85120C387F90120C017F18127E
:1008F3000C3D7F92120C387F93120C017F030E1272
:100903000C3D7F951E120C017F107E02120C3D7F61
:1009130097120C367F98120C387FF0120C017F0867
:100923007E54120C3D7FF27E00120C017FDF120C0D
:100933003D7FF3120C017F06120C3D7FF4120C0174
:100943007F1F120C3D7FF7120C017F80120C3D7F3D
:10095300F0120C387F07120C017F73120BF37F71B7
:0F096300120BF37F730E120C3D7F501E020C1C03
:080B74008B2C8D828C83AD07F0
:100B7C00E52CD3945F504AEDFF7E002407FDEE3345
:100B8C00120B15E4FB7980E4FA75F010E52CA42423
:100B9C0003F582E5F03400F583E5822BF582E4352C
:100BAC0083F583E493596006AE2DAF2E8004AE2FEF
:100BBC00AF30120C3DE9C313F90ABA08CC0BBB10C9
:010BCC00C464
:010BCD002205
:0C0972008F318C328D338B348A358936FE
:10097E00120CC2EF75F008A42402FDE435F0FCAFB2
:10098E00317E00E5332411F50FE43532F50EE4F532
:10099E0010F511AB33AA32120A5B05310533E5337C
:1009AE0070020532AB34AA35A936120BCE602A245A
:1009BE00E0FB74FFF52DF52EE4F52FF530AD33ACDD
:1009CE0032AF31120B7474082531F53174012536AE
:0909DE00F536E43535F53580CB22
:0109E70022ED
:0609E8008B228D828C833E
:1009EE00EF240FFDE43E120B15E4F52575278075F7
:1009FE002800E4F526E522C43354E02463F582E4AE
:100A0E003406F58375F002E525120BE7E4935527BE
:100A1E00FE74019355284E6006AE23AF2480047EEB
:100A2E00007F00120C3DE527C313F527E52813F5CB
:100A3E00280526E526D3940F40BB0525E525D3943E
:030A4E000F40A9AD
:010A51002282
:03000000020CD718
:0C0CD700787FE4F6D8FD758136020AB67D
:100BCE00BB010689828A83E0225002E722BBFE0225
:090BDE00E32289828A83E4932258
:0C0BE700A42582F582E5F03583F5832219
:100CC200E4FFFE120BCE600C0FEF70010E09E9700B
:050CD200F20A80EF2290
:00000001FF
