:03000000020003F8
:0C000300787FE4F6D8FD75811502004AF4
:0802550048656C6C6F0D0A0096
:0A0241000808070809030302010082
:0701D1007FFF1201D87FFF40
:1001D800E4FEC2A0EF30E704D2A18002C2A1EF255D
:0E01E800E0FFD2A030A2030F80000EBE08E49C
:0101F60022E6
:09024C00D2A0D2A1D2A2D2A322B9
:10022D00EF4E600F7D147C64DCFEDDFAEF1F70F085
:03023D001E80ED33
:01024000229B
:1001F70012024C1201D11201D17F201201D8E4FF63
:0D0207001201D87F101201D87F220201D809
:10013C00E4F511F5127580551202147BFF7A0279E1
:10014C00551201A91201F720A3FD7F381201D8E442
:10015C00FF1201D88F10120265E4FF1201D88F1024
:08016C001202651201F780DFA9
:05026D003078002000C4
:1002140053890F438920758DF3758BF3438780755C
:090224009850D28ED2ACD2AF2268
:07025D003098FDC298AF9933
:010264002277
:080265008F993099FDC2992226
:1001A9008B138A148915AB13AA14A91512008F6031
:1001B900160515E5157002051414F912008FF59945
:0801C9003099FDC29980DF228C
:10017400AB07AA06EB4A70057F30020265EB4A60C2
:10018400237C007D0AAF03AE021200A8ED2430FFE9
:100194001202657C007D0AAF03AE021200A8AA0613
:0501A400AB0780D92229
:0200FD00AE074C
:1000FF007BFF7A02796D1201A9EE54F0C4540FFD03
:10010F00C3940AED5004243080022437FF12026595
:10011F00EE540FFDC3940AED5004243080022437AF
:0D012F00FF1202657BFF7A0279700201A9C0
:10000F0002013CE493A3F8E493A34003F68001F2CA
:10001F0008DFF48029E493A3F85407240CC8C333F2
:10002F00C4540F4420C8834004F456800146F6DFC1
:10003F00E4800B0102040810204080900241E47E0E
:10004F00019360BCA3FF543F30E509541FFEE493B6
:10005F00A360010ECF54C025E060A840B8E493A37D
:10006F00FAE493A3F8E493A3C8C582C8CAC583CAA8
:10007F00F0A3C8C582C8CAC583CADFE9DEE780BE60
:01024B0000B2
:10008F00BB010689828A83E0225002E722BBFE026F
:09009F00E32289828A83E49322A2
:1000A800BC000BBE0029EF8DF084FFADF022E4CC3C
:1000B800F875F008EF2FFFEE33FEEC33FCEE9DEC05
:1000C800984005FCEE9DFE0FD5F0E9E4CEFD22ED4B
:1000D800F8F5F0EE8420D21CFEADF075F008EF2F95
:1000E800FFED33FD4007985006D5F0F222C398FD86
:0500F8000FD5F0EA2223
:00000001FF
