:100078001200C37FD012004EEF700A7F3112004E7B
:0A0088007F3212004E1200CD80FE00
:0A00C300C296D296D29700C297228F
:0A00CD00C296D296C29700D2972285
:10004E00E4FEC296EF30E704D2978002C297D296B2
:10005E0000EF25E0FF0EBE08E9C29600D29700D24F
:09006E00963097037F01227F0008
:010077002266
:060003008B128A13891420
:10000900AF051DEF603EE4FFFEEF25E0FFC296005D
:10001900D296003097034307010EBE08ECAB1205D8
:1000290014E514AA137002051314F9EF1200A5EDD3
:100039007006C296D2978004C296C297D296C2968B
:04004900D29780BC0E
:01004D002290
:10009200AD071FED600C7EC8EE60F57D9BDDFE1E98
:0200A20080F6E6
:0100A4002239
:030000000200B744
:0C00B700787FE4F6D8FD75811402007813
:1000A500BB010689828A83F0225002F722BBFE013A
:0200B500F32234
:00000001FF
