:1001440001190011083F065B4F666D7D077F6F77CD
:100154007C395E797100081A00000000000000007C
:0E0165007E7B7D05EF60031F80FADDF8DEF47F
:010173002269
:0600AA008B228A23892449
:1000B00090BFFF7480F090AFFF74FFF0909FFF142B
:1000C000F0908FFFE4F0FCAB22AA23A9248C827568
:1000D00083001200F12408F8E6908FFFF07F0712EA
:1000E0000165909FFFE025E0F0E004F00CBC08D72C
:0100F00022ED
:03000300020010E8
:0100100032BD
:03001300020011D7
:0100110032BC
:03001B00020006DA
:0A000600758DFF758BFF7521003228
:040016007FC8DFFEC2
:01001A0022C3
:0A017400C293120165D29302001637
:10011E00D2A8D2AB758956758DFF758BFFD28E7FA7
:10012E0008781A7401F608DFFC7F087B007A0079E4
:06013E001A1200AA80F570
:0300000002001EDD
:0C001E00787FE4F6D8FD758124020065AF
:1000F100BB010CE58229F582E5833AF583E02250C4
:1001010006E92582F8E622BBFE06E92582F8E2220D
:0D011100E58229F582E5833AF583E4932227
:10002A0002011EE493A3F8E493A34003F68001F2CD
:10003A0008DFF48029E493A3F85407240CC8C333D7
:10004A00C4540F4420C8834004F456800146F6DFA6
:10005A00E4800B0102040810204080900144E47EF1
:10006A00019360BCA3FF543F30E509541FFEE4939B
:10007A00A360010ECF54C025E060A840B8E493A362
:10008A00FAE493A3F8E493A3C8C582C8CAC583CA8D
:10009A00F0A3C8C582C8CAC583CADFE9DEE780BE45
:01016400009A
:00000001FF
