:1001940001290011183F065B4F666D7D077F6F775D
:1001A4007C395E797100082A00000000000000001C
:0E01CF007E7B7D05EF60031F80FADDF8DEF415
:0101DD0022FF
:040016007FC8DFFEC2
:01001A0022C3
:0A000600C2931201CFD2930200163C
:0600AA008B328A33893419
:1000B00090BFFF7480F090AFFF74FFF0909FFF142B
:1000C000F0908FFFE4F0FCAB32AA33A9348C827538
:1000D00083001200F12418F8E6908FFFF07F0712DA
:1000E00001CF909FFFE025E0F0E004F00CBC08D7C2
:0100F00022ED
:0300030002011ED9
:0B011E00C0E0C083C082C0D075D008D4
:10012900D28AD2AA9000FFE4F07F08782AE4F60880
:05013900DFFC120006CE
:09013E00D0D0D082D083D0E03291
:0300130002016E79
:10016E00C0E0C083C082C0D075D010752C01900045
:10017E00FFE0FFC4540FF52AE0540FF52BD0D0D07A
:06018E0082D083D0E032B4
:03001B0002014798
:10014700C0E0C0D0E5297002D28C758D3C758BB0AC
:100157000529E529B4140BC28C858A2F758A007589
:070167002900D0D0D0E032E6
:1001B500D2A8D2AB758916758D3C758BB0D28E7B66
:0A01C500007A00792A1200AA80F5E2
:0300000002001EDD
:0C001E00787FE4F6D8FD7581340200659F
:1000F100BB010CE58229F582E5833AF583E02250C4
:1001010006E92582F8E622BBFE06E92582F8E2220D
:0D011100E58229F582E5833AF583E4932227
:10002A000201B5E493A3F8E493A34003F68001F236
:10003A0008DFF48029E493A3F85407240CC8C333D7
:10004A00C4540F4420C8834004F456800146F6DFA6
:10005A00E4800B0102040810204080900194E47EA1
:10006A00019360BCA3FF543F30E509541FFEE4939B
:10007A00A360010ECF54C025E060A840B8E493A362
:10008A00FAE493A3F8E493A3C8C582C8CAC583CA8D
:10009A00F0A3C8C582C8CAC583CADFE9DEE780BE45
:0101B400004A
:00000001FF
