:10011600202020323030392D30362D30342020004A
:10012600202031373A32353A323920200048656C82
:100136006C6F0052656164790009060405040404C5
:0101460005B3
:0B016A00EB2480FF1201E87F647E00A0
:10017500EF1FAA0670011E4A600C7D64ED60F17CDC
:0601850007DCFE1D80F600
:01018B002251
:09024300B2A57F017E00020175E5
:1001E800C2A0C2A18F80D2A2E4FFFE120175C2A2F2
:0101F80022E4
:1001F900D2A0C2A18F80D2A2E4FFFE120175C2A2D1
:0102090022D2
:1000D7008B0B8A0C890DAB0BAA0CA90D12004E6075
:1000E7002DB40A107FC01201E87401250DF50DE447
:1000F700350CF50CAB0BAA0CA90D12004EFF120123
:0F010700F97401250DF50DE4350CF50C80C822B7
:0201AA00AE079E
:1001AC007F80BD0104EE142FFFBD0205EE243F2F0E
:0401BC00FF0201E855
:100094007F2C7E011201757F381201E87F0F7E00EC
:1000A4001201757F381201E87F017E001201757F0D
:1000B4000E1201E87F017E001201757F061201E82D
:1000C4007F017E001201757F011201E87F017E002D
:0300D400020175B1
:1001C000758920758DFD758BFD7598505387EFD21D
:0501D0008EE4F5A822F9
:08024C008F993099FDC299223F
:060147008B088A09890AF9
:10014D00E4FFAB08AA09A90A8F8275830012006724
:0C015D00600AF5993099FDC2990F80E608
:010169002273
:0E021B007F021201E87BFF7A0179160200D7FC
:0E0229007FC01201E87BFF7A0179260200D720
:10020A007F051201E87B2712016ADBFB7F060201E8
:01021A00E8FB
:1001D5007F071201E8E4FB12016A0BBB28F97F06D1
:0301E5000201E82C
:10018C007F801201E87F401201E8E4FBEB90013F15
:0E019C0093FF1201F90BBB08F37F800201E80C
:100003001200941201C07BFF7A0179331200D712D8
:10001300018C1200947BFF7A0179391200D775B0F5
:10002300FF20B215E4F912020A09B910F9E4F91232
:1000330001D509B910F912017120B4E27F0112014F
:0B004300E8E4FF1201F912017180D304
:03000000020237C2
:0C023700787FE4F6D8FD75810D0200030D
:10004E00BB010689828A83E0225002E722BBFE02B0
:09005E00E32289828A83E49322E3
:10006700BB010CE58229F582E5833AF583E022504E
:1000770006E92582F8E622BBFE06E92582F8E22298
:0D008700E58229F582E5833AF583E49322B2
:00000001FF
