:100947007E306D79335B5F707F7B771F4E3D4F47FE
:04095700673EFF00F8
:0A096D000808000000000000000070
:070919007F641209207F64D6
:10092000AD071FED600C7E2BEE60F57D49DDFE1EF0
:0209300080F64F
:0109320022A2
:1008E00000E4FEEF5480FDEF25E0FFED6004D290C0
:0C08F0008002C290C292D2920EBE08E7B5
:0108FC0022D9
:10095B00AC05C291001208E000AF041208E000D20F
:02096B009122D7
:1008FD007D077F0B12095B7DFF7F0912095B7D0A66
:0C090D007F0A12095B7D017F0C02095B70
:10093300E4F5A8F5B8758CD8758AF07589017588C2
:0409430011F5D022B8
:10088C001209331208FD7D017F0F12095B12091941
:07089C00E4FD7F0F12095B70
:1008A300E4F5101209191208FDE4F5117408251175
:1008B300F8A6100511E511B408F2751101740725A6
:1008C30011F8E6FDAF1112095B0511E511D3940888
:0D08D30040EB0510E510D3940940C880C328
:03000000020800F3
:0C080000787FE4F6D8FD758111020847EE
:10080C0002088CE493A3F8E493A34003F68001F26E
:10081C0008DFF48029E493A3F85407240CC8C333ED
:10082C00C4540F4420C8834004F456800146F6DFBC
:10083C00E4800B010204081020408090096DE47ED6
:10084C00019360BCA3FF543F30E509541FFEE493B1
:10085C00A360010ECF54C025E060A840B8E493A378
:10086C00FAE493A3F8E493A3C8C582C8CAC583CAA3
:10087C00F0A3C8C582C8CAC583CADFE9DEE780BE5B
:01097700007F
:00000001FF
