:100089007A68616F796F6E676B6500207777772E75
:0C0099007973752E6564752E636E20006F
:0D011200C2A2D2A100D2A000C2A0AF8022E4
:1000D500C2A000C2A200C2A1008F9000D2A000C29F
:0500E500A00002011261
:1000EA00C2A000D2A200C2A1008F9000D2A000C27A
:0500FA00A0000201124C
:1000FF001200A5FF600C1200EA740129F9E43AFA24
:03010F0080EE225D
:1000BE00AE07BE0107ED4480FF1200D5BE0207ED6C
:0700CE0024C0FF1200D5223F
:10003700C2A07F0F7E0012007312006A12006A7F4F
:10004700381200D57F381200D5007F081200D5007E
:100057007F061200D5007F0C1200D5007F01120029
:03006700D500229F
:09006A007F381200D57F057E00ED
:10007300EF1FAA0670011E4A600BE4FDEDC3947DD9
:0500830050EE0D80F7B6
:010088002255
:100003001200377FF47E01120073E4FD7F011200BA
:10001300BE7F011200D57BFF7A0079891200FF7F32
:10002300021200BE7A0079941200FF7FA07E0F12A5
:04003300007380FED8
:0300000002011FDB
:0C011F00787FE4F6D8FD7581250200030E
:1000A500BB010689828A83E0225002E722BBFE0259
:0900B500E32289828A83E493228C
:00000001FF
