:100003000831866000FE02F202FE00F80000FF00E5
:1000130004FC03008047300F1067000740807F0017
:100023004042DC08009090909090FF10121C10004A
:1000330000007F201020201F1010010618207800D8
:100043004042424242FE42424242FE424242420059
:10005300004020100C03000000007F00000000009F
:100063001090701F12F000207028272228702000A3
:100073004021120C060930007F212121217F00003D
:1000830000908CA4A4A4A5A6A4A4A4A4948C040066
:100093000080402018070000003F404040700000EF
:1000A3000000FF88482808807F8888888484E000CF
:1000B30004040404040404FF040404040404040006
:1000C30000000080F0FE7E0E7EFEF0800000000047
:1000D300FEFEFE3CF0E0800000FEFEFE000000FE9F
:1000E300FEFE0E0E0E0E0E3EFCF8E00000E0F8FCE5
:1000F3003C1E0E0E0E0E1E3CFCF8E0000000FEFE41
:10010300FE8E8E8E8E8EFEFCF8000000FEFEFE003C
:1001130000FEFEFE3CF0E0800000FEFEFE0000005C
:1001230000000000000000000000000000000000CC
:1001330000000000000000000000000000000000BC
:1001430080F0FE7F1F1D1C1C1C1D1F7FFEF0800006
:10015300FFFFFF0000030F3E78FFFFFF000000FFDB
:10016300FFFFE0E0E0E0E0707F3F0F00000F3F7F24
:1001730078F0E0E0E0E0F0787F3F0F000000FFFF61
:10018300FF0303030F1F7DF9E0800000FFFFFF0063
:1001930000FFFFFF0000030F3E78FFFFFF0000009A
:1001A300000000000000000000000000000000004C
:1001B300000000000000000000000000000000003C
:1001C3000000004030101010D0121C1010101050FE
:1001D3003000000000F010181610F08040301E10A0
:1001E3001010F810000040484848C8F844464440FE
:1001F30000F80000FE00000000000008106000008E
:10020300FE0080601800800000000000F010101055
:1002130010FE1010101010F8100000004848484459
:10022300FC4242408008300000FE00000000202015
:1002330020FE202000202020FE202020302000004F
:10024300000001010101098F915121215947818149
:100253008101000000FF42424242FF0000010E8084
:1002630000807F0000002010080601FF01020C003F
:10027300001F8000FF00000001010181413F0101D7
:1002830001FF0101010101F1000000001F0909093B
:1002930009FF09090909091FC00000001008040328
:1002A300FF0106101013080808FF0404000004846B
:1002B30002FF01010081875921514D838180000094
:1002C3000000000101010100000000000000000027
:1002D30001000000000100000080F17C0C7CF08034
:1002E300010000FCFC3CF8C0000000C1F83CFCFC31
:1002F300000000613018FCFC0101010030381C0CC7
:100303000C1CF9F1010171F98C8C8C8CF8700000D4
:10031300E0F81D8D8D8D1911010000C0E038FCFC43
:1003230001000000000000000001000000000000C8
:1003330001000001010000000000000001000000B6
:1003430000000000000000000000000000000000AA
:1003530000000000000000607C1F07060606071F60
:100363007C60007F7F00011F7C607C1F01007F7F1A
:100373000000000000007F7F000000006070786CC8
:100383006663616000001E3F616161613F1E0000A2
:100393000F3F736161613F1E000E0F0D0C0C7F7FD9
:1003A3000C0C000000000000000000000000000032
:1003B300000000000000000000000000000000003A
:1003C300000000000000000000000000106106C0F3
:1003D30000FE02F202FE0000F800FF00000080822F
:1003E300848C00109090909090FF101214100000D5
:1003F3002424A4FEA2232280BEA2A2A2A2A2BF8280
:1004030000000000FC0414141415569454341414FE
:1004130006040000000000000000603018FCFC002F
:100423000000000000000000F0F81C0C0C1CF8F0A9
:1004330000000000000000000000000000000000B9
:1004430000000000000000000000000008087E819A
:100453004027100F106700004F807F00000000004E
:10046300007F201020603F1010031C2040F000008C
:10047300100E01FF00038088888888FF888888C859
:10048300800080601F0001010141817F010101059E
:10049300030100000000000000000000007F7F0057
:1004A30000000000606000001F3F706060703F1F2D
:1004B3000000000000000000000000000000000039
:0C06BA00C2B68F90E4FFFE1206C6D2B05C
:1006C600E4FDFCC3ED9FEC9E5015E4FBFA0BBB006A
:0F06D600010AEB640A4A70F50DBD00010C80E4C7
:0106E50022F2
:1007A000D2B3D2B47F3F1207B57FB81207B57FC06E
:0507B0001207B57F40B7
:0807B500C2B51206BAC2B0225F
:10073A00E50B75F080A4FFE97C002FFFEC35F0FE95
:0D074A00E50A2FF582E5093EF583E493FFF3
:08075700D2B51206BAC2B022AD
:0B07BD00D2B5D2B61206BEC2B0AF909B
:0107C800220E
:10059A00D2B3D2B47FB81207B0E4F97F0112075779
:1005AA0009B940F77FBF1207B0E4F97F80120757F5
:1005BA0009B940F7E4F9C2B3D2B4E924B8FF120783
:1005CA00B57F7F1207B57FFF120757D2B3C2B4E9CE
:0F05DA0024B8FF1207B07FFF12075709B908D7DF
:0105E90022EF
:10071200D2B3D2B47FB81207B0E4F9E924B8FF1219
:1007220007B5E4F50BE4FF120757050BE50BC3947D
:070732004040F209B908E4A0
:01073900229D
:0405EA008E098F0ADD
:1005EE00E4F50BD2B3C2B47F0A7E001206C6E50B49
:1005FE0024B8FF1207B0E4F912073A09B940F9C25C
:10060E00B3D2B47F0A7E001206C6E50B24B8FF12E1
:10061E0007B0794012073A09B980F9050BE50BC30B
:04062E00940840BF2D
:0106320022A5
:10075F001207A0E4F9E924B8FF1207B0E4F5097F06
:10076F00551207570509E509C3944040F209B90826
:01077F00E495
:010780002256
:1006E6001207A4E4F9E924B8FF1207B07FC0120785
:1006F600B5E4F509E4FF1207577FFF12075705090E
:0B070600E509C3942040ED09B908DAB2
:0107110022C5
:10067800EF70087511AA751255800BEF640170317F
:100688007511557512AA1207A0E4F9E924B8FF12EA
:1006980007B07FC01207B5E4F510AF11120757AFC6
:1006A800121207570510E510C3942040ED09B90848
:0106B800DA67
:0106B900221E
:0C054800D2B3C2B47A007B037D207F0395
:080554008F0B8D0C8A0D8B0E3C
:10055C00E4F9F50FE50B24B829FF1207B5E50C24D7
:10056C0040FF1207B5E4F50FE975F010A47C0025E7
:10057C000FFFEC35F0FEE50E2FF582E50D1207515D
:0D058C00050FE50FC3941040DF09B902C749
:01059900223F
:10078100C2B27F647E001206C6D2B21206C6D2B3CE
:0F079100D2B41206C67F3E1207A67F3F0207B5FD
:1004C3008E098F0A12071212059AE50A450970442C
:1004D3001205487FD07E071206C67A007B237D3043
:1004E3007F031205547FD07E071206C6C2B3D2B46F
:1004F3007A007B43E4FD7F031205547FD07E07120D
:1005030006C67A007B637D107F031205547FD07E7D
:10051300070206C6E50A6401450970281205487AF0
:10052300007B237D307F03120554C2B3D2B47A001B
:100533007B83E4FD7F031205547A007BA37D107F48
:05054300031205542223
:0907D50020B1FDA2B1B340FB22EA
:10063300E4F5081207817E007FC31205EA7F107E6E
:10064300271206C6E4FFFE1204C37F107E2712069C
:10065300C612075F7F107E271206C61206E67F10BA
:100663007E271206C67F017E001204C37F107E27F9
:050673001206C680BE66
:030000000207C92B
:0C07C900787FE4F6D8FD7581120206333B
:00000001FF
