:0F018F004B4B4B206973204E4F2E312121210005
:04012D007F017E00D0
:10013100EF1FAA0670011E4A600C7D64ED60F17C20
:0601410007DCFE1D80F644
:010147002295
:100161008F0B120111C2B1C2B2850BA0D2B3E4FF51
:07017100FE120131C2B322AE
:100178008F0B120111D2B1C2B2850BA0D2B3E4FF2A
:07018800FE120131C2B32297
:100111007F02C2B1D2B2D2B3800AEE30E70DAD0791
:0B0121000FED600775A0FFAEA080EF9F
:01012C0022B0
:0901AA00D2B1D2B2D2B3AFA0224F
:10006C008B088A09890AAB08AA09A90A12014860F7
:10007C002DB40A107FC01201617401250AF50AE43F
:10008C003509F509AB08AA09A90A120148FF1201A2
:0F009C00787401250AF50AE43509F50980C822B0
:1000E2007590FFE590B4FF037F0022E4FD74017E6A
:1000F20000A805088005C333CE33CED8F9FFAC90F3
:0E010200ECFBEF5B7004ED04FF220DBD08DF87
:0101100022CC
:1000AB007F2C7E011201317F381201617F0F7E00A0
:1000BB001201317F3812016112012D7F0E12016185
:1000CB0012012D7F0612016112012D7F01120161B8
:0700DB007F017E00020131EC
:100003001200AB7BFF7A01798F12006C1200E2EFD2
:1000130014B40800504A90002775F003A4C5832543
:10002300F0C5837302003F02004302004702004B06
:1000330002004F02005602005A02005E7F61800EEA
:100043007F62800A7F3180067F3280027F33120114
:1000530078800D7F1880067F0180027F1C1201616A
:090063007F2C7E0112013180A303
:0300000002019E5C
:0C019E00787FE4F6D8FD75810B020003A9
:10014800BB010689828A83E0225002E722BBFE02B5
:09015800E32289828A83E49322E8
:00000001FF
