:10015F0000203FF002000200020002087FFC028034
:10016F00028004800480088008821082207E400074
:10017F000840085010481040227C7FC00844107E71
:10018F0023C07C48005000201C60E092430A000608
:10019F000200020002107FF8421042107FF042105E
:1001AF0042107FF0421002000204020401FC000022
:0301BF000001023A
:1001C200FF1201D3E5092440FF7813E6C454F02F4F
:0101D200FF2D
:1001D300C290D293C2948F80D2927F05DFFEC292E7
:0601E3007F05DFFED29251
:0101E90022F3
:1001EA00D290D293C2947E0ADEFE8F807E0ADEFE11
:0E01FA00D2927E0ADEFEC2927E05DEFED29218
:0102080022D3
:07020900E6C454F02509FFD3
:10021000C290C293D2948F80D2927F05DFFEC292A9
:060220007F05DFFED29213
:0102260022B5
:10024000D290C293D2948F80D2927F05DFFEC29269
:060250007F05DFFED292E3
:010256002285
:0A0003008F088D098B0A8A0B890C07
:10000D00E47813F618F67812E6C3950D4003020155
:10001D005EAB0AAA0BA90C120227FFB4FF0A050852
:10002D000508E408F602014D750EFF750F017510F8
:10003D005FEF75F020A4AEF02510F510EE350FF53D
:10004D000F7813E675F010A47C002509FFEC35F050
:10005D00FED3EF943FEE648094804077E50824B89A
:10006D00FF120210120209E47811F6AB0EAA0FA9C5
:10007D00103000051202278004120227F4FF12022D
:10008D004074012510F510E4350FF50F781106E6D3
:10009D00C3941040D6E50824B9FF1202107813124C
:1000AD000209E47811F6AB0EAA0FA9103000051263
:1000BD0002278004120227F4FF120240740125105A
:1000CD00F510E4350FF50F781106E6C3941040D600
:1000DD0002014AE50824B81201C2E47811F6AB0E0C
:1000ED00AA0FA9103000051202278004120227F46E
:1000FD00FF1201EA74012510F510E4350FF50F78A4
:10010D001106E6C3941040D6E50824B91201C2E4E5
:10011D007811F6AB0EAA0FA9103000051202278038
:10012D0004120227F4FF1201EA74012510F510E400
:10013D00350FF50F781106E6C3941040D6781306E7
:10014D007401250CF50CE4350BF50B781206020045
:01015D00138E
:01015E00227E
:100257007BFF7A0179BF750D0ED200E4FDFF120016
:030267000380FE13
:0300000002026A8F
:0C026A00787FE4F6D8FD75812002025771
:10022700BB010689828A83E0225002E722BBFE02D5
:09023700E32289828A83E4932208
:00000001FF
