:100000001CC035C034C033C032C031C030C02FC076
:100010002EC02DC02CC02BC02AC029C028C027C08C
:1000200026C025C024C07401F590110B0380F9800F
:10003000F579FF7AFFDAFED9FA2211241FBECFE547
:10004000D4E0DEBFCDBF10E0A0E6B0E0E0E1F1E03B
:1000500002C005900D92A036B107D9F710E0A0E6D6
:10006000B0E001C01D92A036B107E1F740C0C8CF93
:1000700000008FEF87BB84BB18BA15BA0000089543
:1000800001972FEF8F3F920761F048EC50E02AE094
:1000900030E0000021503040E1F741505040B9F7C6
:1000A000EFCF0895E5DF84E085BBA99A81E090E079
:1000B000E7DFA9988AE090E0E3DFA99A0895982FF6
:1000C00088E385BB98BBA99A81E090E0D9DFA99825
:1000D00081E090E0D5DFA99A18BAA89881E090E075
:1000E000CFDFA89A81E090E0CBDFA8980895CFE514
:1000F000D4E0DEBFCDBFC6E2D0E0BADFD3DF13E18C
:10010000FE018491DCDF2196115017FFF9CFFFCF5C
:00000001FF
