:03000000020014E7
:10000B000520758CD8758AEF32758150758CD87533
:10001B008AEF75890175A88220900911E62090045A
:10002B0011EF012320910911E620910431010123E5
:10003B0020920911E6209204311301232093091118
:10004B00E62093043125012320940911E620940422
:10005B003137012320950911E620950431490123FD
:10006B0020960911E6209604315B01232097091194
:10007B00E6209704316D012320B40711E620B4026A
:10008B00118F01230090017F75200075F00000E4B3
:10009B00936033B4FF030200C000FEA3E5F093FFAF
:1000AB00D28C00B2B5EEFB1200DCEFB520F475205C
:1000BB0000A302009900C28C7A0D007BFF1200DCBA
:1000CB00DAF8A3020099007A647B001200DCDAF9FB
:1000DB0022007C0500DCFD00DBF8227C2D7B36DB6F
:1000EB00FEDCFA2200B2B57430FB1200DC3090F467
:1000FB0011E63090EF2200B2B5742CFB1200DC300D
:10010B0091F411E63091EF2200B2B57428FB120086
:10011B00DC3092F411E63092EF2200B2B57424FB7E
:10012B001200DC3093F411E63093EF2200B2B57479
:05013B0020FB1200DCB6
:100140003094F411E63094EF2200B2B5741CFB1227
:1001500000DC3095F411E63095EF2200B2B5741A48
:10016000FB1200DC3096F411E63096EF2200B2B5B7
:100170007418FB1200DC3097F411E63097EF221868
:10018000301C1020401C10181020101C1018401C8F
:100190002020201C2018202080FF20301C10182038
:1001A00015201C202020264020202B202620202027
:1001B0003080FF20201C101810202026202B2030FB
:1001C000202B4020201C101810202026202B20300F
:1001D000202B4020301C10182015201C2020202609
:1001E0004020202B2026202020308020301C102072
:1001F000101C10202026202B2030202B4020151FE3
:100200000520101C10202026202B2030202B4020E1
:10021000301C10182015201C202020264020202BC8
:100220002026202020303020301C1018401C202098
:0E02300020264013601820154013401880004F
:00000001FF
