:1000C200141003060C080F0E0602011100000000B6
:0900D20000000000000001240000
:03000B0002009A56
:10009A00C0E0C0D075D008758CD9758AF0D2B00589
:1000AA0024E524B4140375240074102524F8E6F515
:0800BA00A0C2B0D0D0D0E032AA
:1000DC00758CD9758AF0758901D28CD2A9D2AF8072
:0100EC00FE15
:0300000002000EED
:0C000E00787FE4F6D8FD758124020055CF
:10001A000200DCE493A3F8E493A34003F68001F220
:10002A0008DFF48029E493A3F85407240CC8C333E7
:10003A00C4540F4420C8834004F456800146F6DFB6
:10004A00E4800B01020408102040809000C2E47E84
:10005A00019360BCA3FF543F30E509541FFEE493AB
:10006A00A360010ECF54C025E060A840B8E493A372
:10007A00FAE493A3F8E493A3C8C582C8CAC583CA9D
:10008A00F0A3C8C582C8CAC583CADFE9DEE780BE55
:0100DB000024
:00000001FF
